:020000040800F2
:1000000000500020A9360008730700087507000893
:1000100077070008790700087B0700080000000048
:100020000000000000000000000000007D07000844
:100030007F07000800000000810700088307000810
:10004000F1360008F1360008F1360008F1360008F4
:10005000F1360008F1360008F1360008F1360008E4
:10006000F1360008F1360008F1360008F1360008D4
:10007000F1360008F1360008F1360008F1360008C4
:10008000F1360008F1360008F1360008F1360008B4
:100090008D070008F1360008F1360008F136000837
:1000A000F1360008F1360008F1360008F136000894
:1000B000F1360008F1360008F1360008F136000884
:1000C000F1360008F1360008F1360008F136000874
:1000D000F13600089D070008F1360008F1360008E7
:1000E000F1360008F1360008F13600080000000083
:1000F0000000000000000000000000000000000000
:0C01000000000000000000005FF808F1A3
:10010C0010B5054C237833B9044B13B10448AFF345
:10011C0000800123237010BDE001002000000000CE
:10012C00AC46000808B5034B1BB103490348AFF3B9
:10013C00008008BD00000000E4010020AC4600086F
:10014C0070B50C4616460025B54207DAAFF30080B1
:10015C00214601F8010B01350C46F5E7304670BD20
:10016C0070B50C4616460025B54205DA14F8010B9D
:10017C0000F07AFA0135F7E7304670BD08B5034652
:10018C000B4A126842B10A4A106803446A46934209
:10019C0006D8074A136008BD054A06491160F2E704
:1001AC0003F0A2FA0C2303604FF0FF30F3E700BF1B
:1001BC00FC010020D81400204FF0FF3070474FF4A2
:1001CC0000534B600020704701207047002070479F
:1001DC0012230B80004870471C00002004230B8066
:1001EC0000487047300000200023934216D230B4F0
:1001FC000BE0373401F8134000015C00013400259A
:10020C000D550133DBB2934206D2040F092CF0D802
:10021C00303401F81340EFE730BC704770470000F2
:10022C0038B50A4B186804331C6804331B68C018B3
:10023C0000D138BD064D0822A91CFFF7D5FF0422BA
:10024C0005F112012046FFF7CFFFF2E7E8F7FF1F99
:10025C003400002008B51A230B80FFF7E1FF01489A
:10026C0008BD00BF3400002008B50A4628B905496E
:10027C00054803F098F8034808BD0249024803F00A
:10028C0092F8F8E72C0400200847000810B5044C3D
:10029C000A462146034803F086F8204610BD00BFED
:1002AC002C040020F446000808B50A4628B9054974
:1002BC00054803F078F8034808BD0249024803F0EA
:1002CC0072F8F8E72C040020D846000808B50A4656
:1002DC0028B90549054803F066F8034808BD0249EA
:1002EC00024803F060F8F8E72C040020E44600080C
:1002FC0008B500220F49104802F0A2FC70B90F4952
:10030C000D4802F0C1FC60B90D490B4803F098F997
:10031C0050B9094802F0CEFC48B908BD00F022FAE9
:10032C00EDE700F01FFAEFE700F01CFAF1E700F040
:10033C0019FAF2E7000000202C0600206C000020C7
:10034C0050000020002070470020704710B5054C6D
:10035C000146204603F083F9204603F086F900207D
:10036C0010BD00BF2C06002010B5064C002206491B
:10037C00204603F06CF90549204603F070F9002083
:10038C0010BD00BF2C060020380C002050080020A7
:10039C00022807D8DFE800F00206040000207047AE
:1003AC00012070470220704702680E4B9A4200D021
:1003BC00704700B583B003F5DA33DA6942F4000212
:1003CC00DA61DB6903F400030193019B00221146FF
:1003DC00142001F0B5FA142001F0E6FA03B05DF830
:1003EC0004FB00BF005C004008B500F22C41D0F8C3
:1003FC005C0402F078FC08BD08B500EB4113D3F89F
:10040C003C22D0F85C0402F09CFC08BD08B500EB63
:10041C004113DA6BD0F85C0402F0C9FC08BD08B5D6
:10042C00D0F85C0402F04DFD08BD10B5044683689D
:10043C00022B09D10121D4F85C0402F030FDD4F870
:10044C005C0402F00DFD10BD00F08CF9F2E7000029
:10045C0010B50446D0F85C0402F024FDA36923B166
:10046C00024A136943F00603136110BD00ED00E06E
:10047C0008B5D0F85C0402F01EFD08BD10B50446AA
:10048C001D48C0F85C44C4F820021C4B03600823D0
:10049C0043600223836000238361C361036201F024
:1004AC00A5FA30BB182300221146D4F8200201F023
:1004BC00F8FE582300228021D4F8200201F0F1FE2E
:1004CC00C02300228121D4F8200201F0EAFE4FF46F
:1004DC00887300220121D4F8200201F0E2FE4FF4CF
:1004EC00807300228221D4F8200201F0DAFE002071
:1004FC0010BD00F037F9D5E720100020005C00405B
:10050C0008B5D0F8200201F0DCFAFFF741FF08BD76
:10051C0010B51C4613462246D0F8200201F0FCFA16
:10052C00FFF736FF10BD08B5D0F8200201F01DFB17
:10053C00FFF72EFF08BD08B5D0F8200201F05CFED5
:10054C00FFF726FF08BD08B5D0F8200201F082FEA7
:10055C00FFF71EFF08BDD0F8203211F0800F06D136
:10056C0001F07F0103EB411191F82A02704701F071
:10057C007F0103EB411191F82A00704708B5D0F8C0
:10058C00200201F0B5FAFFF703FF08BD08B5D0F85B
:10059C00200201F037FBFFF7FBFE08BD08B5D0F8D1
:1005AC00200201F009FBFFF7F3FE08BD08B5D0F8F7
:1005BC00200201F020FB08BD00487047000200201B
:1005CC007047704730B589B00024049405940694A4
:1005DC000794184B9A6942F010029A619A6902F0DA
:1005EC0010020192019A9A6942F020029A619A696A
:1005FC0002F020020292029A9A6942F004029A6175
:10060C009B6903F004030393039B0B4D22464FF4A9
:10061C000051284601F030F94FF400530493112394
:10062C00059306940223079304A9284601F03AF88F
:10063C0009B030BD001002400010014008B5084858
:10064C00084B03604FF4E133436000238360C360C5
:10065C0003610C2242618361C36100F074FA08BD2E
:10066C00801400200038014000B583B001904FF693
:10067C00FF73012201A9034800F094FA019803B01A
:10068C005DF804FB8014002070B594B000240C9429
:10069C000D940F941094059406940794089409945F
:1006AC00019402940394049401250A954FF4803329
:1006BC000B930E950226119612934FF480131393FD
:1006CC000AA800F049FC0F230593069607944FF4F3
:1006DC00806308930994294605A800F065FE102351
:1006EC0001934FF48003049301A800F051FF14B060
:1006FC0070BD000070B500F0E1FBFFF7C5FFFFF720
:10070C0061FFFFF79BFFFFF7F3FD134803F01EF8A3
:10071C0000224FF40051114801F0AEF800240F4DA7
:10072C0001224FF40051284601F0A6F8661C214620
:10073C000B4803F00BF84FF47A7000F0E3FB002247
:10074C004FF40051284601F097F84FF47A7000F0FE
:10075C00D9FB3446E3E700BF2047000800100140F6
:10076C007047000870477047FEE7FEE7FEE7FEE7BC
:10077C0070477047704708B500F0B2FB08BD000029
:10078C0008B5024801F088FC08BD00BF201000200D
:10079C0008B5024800F0D4FA08BD00BF8014002050
:1007AC0082B00E4B9A6942F001029A619A6902F08A
:1007BC0001020092009ADA6942F08052DA61DB6938
:1007CC0003F080530193019B054A536823F0E063C7
:1007DC0043F08063536002B0704700BF00100240CA
:1007EC000000014030B587B00023029303930493BB
:1007FC00059302681B4B9A4201D007B030BD03F53C
:10080C0058439A6942F480429A619A6902F4804290
:10081C000092009A9A6942F004029A619B6903F073
:10082C0004030193019B4FF400730293022303937F
:10083C00032305930C4D02A9284600F033FF4FF417
:10084C008063029300240394049402A9284600F0C8
:10085C0029FF22462146252001F072F8252001F0BF
:10086C00A3F8CAE700380140000801400F4B1A6892
:10087C0042F001021A6059680D4A0A405A601A681F
:10088C0022F0847222F480321A601A6822F48022D8
:10089C001A605A6822F4FE025A604FF41F029A60E2
:1008AC00044B4FF000629A60704700BF001002408A
:1008BC000000FFF800ED00E00268D36823F49073A9
:1008CC00D3600268536923F001035361202380F83D
:1008DC003A30704790F83930DBB2212B01D002202E
:1008EC0070478368B3F5805F16D0036A5A1C0262A6
:1008FC001A7803685A60C38C013B9BB2C3844BB912
:10090C000268D36823F08003D3600268D36843F095
:10091C004003D36000207047036A1B880268C3F34E
:10092C000803536003691BB9036A02330362E2E7ED
:10093C00036A01330362DEE72DE9F84305460268DA
:10094C00136923F44053C1680B4313618368026934
:10095C001343426913430168CA6822F4B05222F06F
:10096C000C021343CB600268536923F44073816912
:10097C000B4353610268594B9A4257D000F0E8FD83
:10098C0000EB800000EB80006C68A400B0FBF4F47A
:10099C00534FA7FB04346409260100F0D9FD00EB8A
:1009AC00800000EB80006C68A400B0FBF4F900F050
:1009BC00CFFD00EB800000EB80006C68A400B0FB66
:1009CC00F4F4A7FB043464094FF0640808FB149496
:1009DC0024013234A7FB0434640904F0F0043444D9
:1009EC0000F0B6FD00EB800000EB80006E68B600F6
:1009FC00B0FBF6F600F0ACFD00EB800000EB8000E5
:100A0C006B689B00B0FBF3F0A7FB0030400908FBC0
:100A1C0010684FEA081808F13208A7FB0837C7F32B
:100A2C0043172B6827449F60BDE8F88300F0A0FDB6
:100A3C0000EB800000EB80006C68A400B0FBF4F4C9
:100A4C00274FA7FB04346409260100F091FD00EB4D
:100A5C00800000EB80006C68A400B0FBF4F900F09F
:100A6C0087FD00EB800000EB80006C68A400B0FBFD
:100A7C00F4F4A7FB043464094FF0640808FB1494E5
:100A8C0024013234A7FB0434640904F0F004344428
:100A9C0000F06EFD00EB800000EB80006E68B6008D
:100AAC00B0FBF6F600F064FD00EB800000EB80007C
:100ABC006B689B00B0FBF3F0A7FB0030400908FB10
:100ACC0010684FEA081808F13208A7FB0837C7F37B
:100ADC0043172B6827449F60A6E700BF00380140EE
:100AEC001F85EB512DE9F04105460F4616469846F9
:100AFC00069C2B681B6837EA03030CBF01230023F9
:100B0C00B3421DD1B4F1FF3FF3D02CB100F0F4F996
:100B1C00A0EB0800A042ECD92A68D36823F4D07368
:100B2C00D3602A68536923F001035361202385F8AD
:100B3C00393085F83A30002385F83830032000E04E
:100B4C000020BDE8F08158B310B5044690F8393058
:100B5C000BB3242384F839302268D36823F4005370
:100B6C00D3602046FFF7E8FE2268136923F4904314
:100B7C0013612268536923F02A0353612268D368F6
:100B8C0043F40053D3600020E063202384F8393011
:100B9C0084F83A3010BD80F83830FFF723FED8E7E0
:100BAC00012070472DE9F04182B01E4690F8393093
:100BBC00DBB2202B55D104460D469046002955D06A
:100BCC00002A55D090F83830012B53D0012380F8EF
:100BDC0038300023C363212380F8393000F08CF9BE
:100BEC000746A4F82480A4F8268010E000963B4623
:100BFC00002280212046FFF775FF00283CD12B886E
:100C0C002268C3F3080353602369C3B90235E38C2C
:100C1C009BB2B3B1E38C013B9BB2E384A368B3F505
:100C2C00805FE3D000963B46002280212046FFF7F0
:100C3C0059FF18BB15F8012B23685A60E7E70135FB
:100C4C00E5E700963B46002240212046FFF74AFF8D
:100C5C000346A8B9202284F83920002284F83820D1
:100C6C0000E00223184602B0BDE8F0810123F9E749
:100C7C000123F7E70223F5E70323F3E70323F1E767
:100C8C000323EFE7704708B50168CB6823F04003F6
:100C9C00CB60202380F83930FFF7F4FF002008BD2B
:100CAC00704708B590F83A30DBB2222B45D18368F7
:100CBC00B3F5805F0ED0036903BB03685A68836A7F
:100CCC00591C81621A70C38D013B9BB2C385F3B171
:100CDC00002008BD826A036943B903685B68C3F3EB
:100CEC0008031380836A02338362ECE703685B6852
:100CFC00DBB21380836A01338362E4E703685B68C9
:100D0C00826A511C816203F07F031370DBE7026877
:100D1C00D36823F02003D3600268D36823F4807374
:100D2C00D3600268536923F001035361202380F8D8
:100D3C003A30FFF7B5FF0020CBE70220C9E7704738
:100D4C0010B5044602681368D168526913F00F009D
:100D5C0005D113F0200F02D011F0200F13D128B1C0
:100D6C0012F0010213D111F4907F10D113F0800F07
:100D7C0002D011F0800F69D113F0400F02D011F0A6
:100D8C00400F67D110BD2046FFF78BFFFAE713F039
:100D9C00010F06D011F4807F03D0E06B40F001000E
:100DAC00E06313F0040F04D01AB1E06B40F00200C2
:100DBC00E06313F0020F04D01AB1E06B40F00400B2
:100DCC00E06313F0080F04D01AB1E26B42F0080292
:100DDC00E263E26B002AD5D013F0200F02D011F0A1
:100DEC00200F21D123685B6903F04003E26B12F002
:100DFC00080F00D123B32046FFF75EFD23685A6924
:100E0C0012F0400F18D05A6922F040025A61636BFD
:100E1C0073B1124A5A63606B00F034FD0028B1D0F4
:100E2C00606B436B9847ADE72046FFF73AFFD9E775
:100E3C002046FFF784FFA5E72046FFF780FFA1E7D8
:100E4C002046FFF77CFF0023E3639BE72046FFF778
:100E5C0041FD97E72046FFF716FF93E76D0E00085C
:100E6C0008B5406A0023C385C384FFF768FF08BD3B
:100E7C0010B504460E4B18784FF47A73B3FBF0F3AD
:100E8C000C4A1068B0FBF3F000F09AFD68B90F2C17
:100E9C0001D901200AE0002221464FF0FF3000F07A
:100EAC004FFD054B1C60002000E0012010BD00BF71
:100EBC0064000020600000206800002008B5074A8C
:100ECC00136843F010031360032000F027FD00208B
:100EDC00FFF7CEFFFFF764FC002008BD00200240A6
:100EEC00034A1168034B1B780B441360704700BF17
:100EFC00C014002064000020014B1868704700BF2C
:100F0C00C014002038B50446FFF7F6FF0546B4F1CF
:100F1C00FF3F02D0044B1B781C44FFF7EDFF401B36
:100F2C00A042FAD338BD00BF6400002082B0084B49
:100F3C001B68084AA2FB03235B0A00FB03F0019029
:100F4C0000BF019B5A1E0192002BF9D102B07047D1
:100F5C0060000020D34D621070B582B00446036867
:100F6C0013F0010F2CD0AB4B5B6803F00C03042B7C
:100F7C001DD0A84B5B6803F00C03082B12D06368E0
:100F8C00B3F5803F41D0002B55D103F1804303F5DD
:100F9C0004331A6822F480321A601A6822F4802210
:100FAC001A6037E09B4B5B6813F4803FE7D0994B9A
:100FBC001B6813F4003F03D06368002B00F0AE8174
:100FCC00236813F0020F75D0924B5B6813F00C0F73
:100FDC005FD0904B5B6803F00C03082B54D0236953
:100FEC00002B00F089808C4B01221A60FFF784FFE4
:100FFC000546884B1B6813F0020F74D1FFF77CFF7A
:10100C00401B0228F5D903208DE1824A136843F472
:10101C0080331360636843B3FFF76EFF05467D4B67
:10102C001B6813F4003FCBD1FFF766FF401B64280D
:10103C00F5D9032077E1B3F5A02F09D0754B1A68C9
:10104C0022F480321A601A6822F480221A60E1E7D6
:10105C0003F18043A3F53C331A6842F480221A60F2
:10106C001A6842F480321A60D4E7FFF745FF054650
:10107C00684B1B6813F4003FA2D0FFF73DFF401BE9
:10108C006428F5D903204EE1624B5B6813F4803F72
:10109C00A5D1604B1B6813F0020F03D02369012B01
:1010AC0040F03E815B4A136823F0F803616943EA20
:1010BC00C1031360236813F0080F32D0A369002B0F
:1010CC005BD0564B01221A60FFF716FF0546514BB9
:1010DC005B6A13F0020F21D1FFF70EFF401B0228B1
:1010EC00F5D903201FE14B4A136823F0F80361691B
:1010FC0043EAC1031360DDE7474B00221A60FFF798
:10110C00FBFE0546434B1B6813F0020FD2D0FFF7D2
:10111C00F3FE401B0228F5D9032004E10120FFF760
:10112C0005FF236813F0040F00F09880394BDB693E
:10113C0013F0805F33D1374BDA6942F08052DA61B9
:10114C00DB6903F080530193019B0125344B1B6831
:10115C0013F4807F25D0E368012B36D0002B4CD1C3
:10116C0003F1804303F504331A6A22F001021A6278
:10117C001A6A22F004021A622CE0284B00221A6030
:10118C00FFF7BAFE0546234B5B6A13F0020FC8D07B
:10119C00FFF7B2FE401B0228F5D90320C3E000255F
:1011AC00D4E71F4A136843F480731360FFF7A4FE5F
:1011BC0006461B4B1B6813F4807FCCD1FFF79CFEBB
:1011CC00801B6428F5D90320ADE0124A136A43F062
:1011DC0001031362E3687BB3FFF78EFE06460D4BEB
:1011EC001B6A13F0020F38D1FFF786FE801B41F209
:1011FC0088339842F3D9032095E0052B12D0054B88
:10120C001A6A22F001021A621A6A22F004021A62A5
:10121C00E0E700BF0010024000004242800442425E
:10122C0000700040424B1A6A42F004021A621A6AB9
:10123C0042F001021A62CDE7FFF75EFE06463C4B18
:10124C001B6A13F0020F08D0FFF756FE801B41F209
:10125C0088339842F3D9032065E0E5B9E369002BA4
:10126C0060D0334A526802F00C02082A5DD0022B7F
:10127C0017D0304B00221A60FFF73EFE04462C4B71
:10128C001B6813F0007F47D0FFF736FE001B0228C7
:10129C00F5D9032047E0264AD36923F08053D36164
:1012AC00DCE7244B00221A60FFF726FE0546204B94
:1012BC001B6813F0007F06D0FFF71EFE401B0228B0
:1012CC00F5D903202FE0236AB3F5803F1AD01849D3
:1012DC004B6823F47413226A606A024313434B6015
:1012EC00144B01221A60FFF707FE0446104B1B68D3
:1012FC0013F0007F0ED1FFF7FFFD001B0228F5D97C
:10130C00032010E00A4A536823F40033A1680B430E
:10131C005360DCE7002006E0002004E0012002E03E
:10132C00012000E0002002B070BD0120FBE700BFEF
:10133C00001002406000424210B487B0164C94E892
:10134C000F000DF1180C0CE90F00238AADF80430D6
:10135C00124B5B6803F00C02082A03D0104807B04C
:10136C0010BC7047C3F38342624412F8102C13F480
:10137C00803F0CD0094B5B68C3F34043634413F8C4
:10138C00143C074800FB02F0B0FBF3F0E7E705481C
:10139C0000FB02F0E3E700BFC44600080010024067
:1013AC0000127A0000093D00624B1B6803F0070332
:1013BC008B420BD25F4A136823F007030B43136075
:1013CC00136803F007038B4240F0AE8070B50368DE
:1013DC0013F0020F17D013F0040F04D0564A5368C1
:1013EC0043F4E0635360036813F0080F04D0524ACF
:1013FC00536843F4605353604F4A536823F0F0032F
:10140C008468234353600D460446036813F0010FB0
:10141C0052D04368012B23D0022B28D0464A1268A5
:10142C0012F0020F00F0828043494A6822F0030256
:10143C0013434B60FFF760FD06466368012B1DD01C
:10144C00022B2AD03C4B5B6813F00C0F34D0FFF707
:10145C0053FD801B41F288339842F3D9032062E09C
:10146C00354A126812F4003FDED101205BE0324AAB
:10147C00126812F0007FD7D1012054E02E4B5B682C
:10148C0003F00C03042B17D0FFF736FD801B41F241
:10149C0088339842F2D9032045E0274B5B6803F070
:1014AC000C03082B08D0FFF727FD801B41F2883373
:1014BC009842F2D9032036E01E4B1B6803F0070359
:1014CC00AB420AD91B4A136823F007032B43136062
:1014DC00136803F00703AB422AD1236813F0040FFF
:1014EC0006D0154A536823F4E063E1680B4353605C
:1014FC00236813F0080F07D00F4A536823F4605386
:10150C00216943EAC1035360FFF716FF0A4B5B687E
:10151C00C3F30313094AD35CD840094B186000206D
:10152C00FFF7A6FC002070BD012070470120FAE7F0
:10153C000120F8E700200240001002409847000804
:10154C0060000020014B1868704700BF600000204D
:10155C0008B5FFF7F7FF044B5B68C3F30223034A9C
:10156C00D35CD84008BD00BF00100240A84700085B
:10157C0008B5FFF7E7FF044B5B68C3F3C223034ACC
:10158C00D35CD84008BD00BF00100240A84700083B
:10159C0070B582B00446036813F0010F34D03E4B93
:1015AC00DB6913F0805F48D13B4BDA6942F0805223
:1015BC00DA61DB6903F080530193019B0125374B02
:1015CC001B6813F4807F3AD0334B1B6A13F44073BF
:1015DC0011D0626802F440729A420CD02E4A136AFF
:1015EC0023F440702E4901260E6000260E60106216
:1015FC0013F0010F37D1284A136A23F44073616842
:10160C000B431362002D3FD1236813F0020F06D059
:10161C00214A536823F44043A1680B435360236869
:10162C0013F0100F35D01C4A536823F48003E16883
:10163C000B435360002002B070BD0025BFE7174A72
:10164C00136843F480731360FFF756FC0646134B84
:10165C001B6813F4807FB7D1FFF74EFC801B642806
:10166C00F5D90320E7E7FFF747FC06460A4B1B6A50
:10167C0013F0020FBFD1FFF73FFC801B41F2883300
:10168C009842F3D90320D6E7D36923F08053D36172
:10169C00BAE70020CFE700BF001002400070004006
:1016AC0040044242F0B482B000263546A0E0002B44
:1016BC0058D0012B10D1CE680EE0694FBB4251D0EF
:1016CC0048D9684FBB424DD007F58037BB4249D053
:1016DC00A7F58017BB4245D0FF2A57D88446FF2A6E
:1016EC0057D8AC00DCF800300F27A74023EA0703DB
:1016FC0006FA04F42343CCF800304B6813F0805FF7
:10170C0075D0594B9C6944F001049C619B6903F0B2
:10171C0001030193019BAC08A71C544B53F82730D1
:10172C0005F00307BF004FF00F0C0CFA07FC23EA7F
:10173C000C0C4F4B984232D003F58063984270D01A
:10174C0003F5806398426ED003F58063984224D0F1
:10175C00042325E0A7F58017BB4203D007F580379B
:10176C00BB42B9D18B687BB1012B08D044610826F0
:10177C00B2E7CE680836AFE7CE680C36ACE704614A
:10178C000826A9E70026A7E70426A5E700F1040C24
:10179C00A5E7A5F10804A400A4E7032300E00023B7
:1017AC00BB4043EA0C030234304F47F824304B68FB
:1017BC0013F4803F39D02F4C2368134323604B68BC
:1017CC0013F4003F37D02B4C6368134363604B68B2
:1017DC0013F4801F35D0274CA3681343A3604B68C8
:1017EC0013F4001F33D0234CE3681A43E260013535
:1017FC000F2D32D80124AC400A6822409442F6D115
:10180C004B68122BB8D03FF658AF022BB1D07FF6F5
:10181C004EAF032BB6D0112B7FF45EAFCE680436DF
:10182C005AE70123BCE70223BAE7124C236823EAE8
:10183C0002032360C3E70F4C636823EA020363606F
:10184C00C5E70C4CA36823EA0203A360C7E7094C65
:10185C00E36823EA0202E260C9E702B0F0BC704719
:10186C000000211000003110001002400000014067
:10187C0000080140000401400AB1016170470904ED
:10188C000161704708B590F82130022B03D0042376
:10189C008363012008BD0268136823F00E031360F4
:1018AC000268136823F0010313600368194A93421A
:1018BC0014D0143293421FD0143293421ED01432DF
:1018CC0093421ED0143293421ED01432934202D053
:1018DC004FF0807203E04FF4801200E001220E4BB7
:1018EC005A60012380F82130002380F82030436BAC
:1018FC006BB198470020CDE71022F0E74FF48072CF
:10190C00EDE74FF48052EAE74FF48032E7E700202E
:10191C00C0E700BF0800024000000240074AD3683D
:10192C0023F4E0631B041B0C000200F4E06018437A
:10193C0040F0BF6040F40030D060704700ED00E034
:10194C0030B4174BDB68C3F30223C3F10704042C38
:10195C0028BF04241D1D062D01D9033B00E00023E4
:10196C004FF0FF3505FA04F421EA0401994005FA19
:10197C0003F322EA03031943002809DB0901C9B266
:10198C0000F1604000F5614080F8001330BC7047F6
:10199C0000F00F000901C9B2024B1954F6E700BF61
:1019AC0000ED00E014ED00E000F01F0240090123FF
:1019BC009340024A42F82030704700BF00E100E03B
:1019CC000138B0F1807F0AD2064B5860064AF021EC
:1019DC0082F823100020986007221A6070470120BB
:1019EC00704700BF10E000E000ED00E0002866D07A
:1019FC00F0B587B0044690F829345BB3032384F820
:101A0C002934206800F074FC254655F8107B6E468E
:101A1C000FCD0FC62B683360231D0ECB384600F05C
:101A2C0058FC0021206800F06DFC00230E2B16D80A
:101A3C0004EB4312012182F8291082F82830938696
:101A4C00002182F82B109163D1639A1C5201A15092
:101A5C000133EBE780F82834FEF7A6FCCEE7002331
:101A6C000E2B13D804EB4312002182F8291282F8B2
:101A7C002832938682F82B12C2F83812C2F83C1224
:101A8C0003F112025201A1500133E9E7254655F842
:101A9C00107B6E460FCD0FC62B683360231D0ECB0B
:101AAC00384600F031FC002584F82450012384F8DA
:101ABC002934206800F03CFF284607B0F0BD012017
:101ACC00704790F82834012B10D010B50446012132
:101ADC0080F82814FEF775FD206800F027FF2068B9
:101AEC0000F0FEFB002084F8280410BD0220704793
:101AFC0090F82834012B0DD010B50446012380F842
:101B0C00283480F82410006800F00AFF002084F8C4
:101B1C00280410BD0220704738B54DB2002D1CDBD7
:101B2C0001F07F04640104F50A74044401F07F01A0
:101B3C002170ED0F65702261E37090F82834012B51
:101B4C0011D00546012380F828342146006800F0A6
:101B5C00F1FB002085F8280438BD01F07F046401F6
:101B6C0028340444E2E70220F6E74AB2002A1BDBE1
:101B7C0001F07F035B0103F50A73034401F07F015D
:101B8C001970D20F5A7090F82824012A12D010B56F
:101B9C000446012280F828241946006800F05EFDF6
:101BAC00002084F8280410BD01F07F035B0128336A
:101BBC000344E3E70220704770B501F07F056C0128
:101BCC0004F50A7101440444C4F83C2205F11202E4
:101BDC005201861883500023736084F8293284F8EC
:101BEC00285225B9006800F0BFFE002070BD0068C7
:101BFC0000F0BAFEF9E701F00F01123100EB4111D0
:101C0C008888704770B501F07F056C0104F12801DC
:101C1C0001440444E263AA1C520186188350002339
:101C2C007360012384F8293084F8285025B90068A2
:101C3C0000F09AFE002070BD006800F095FEF9E7F8
:101C4C0070B582B004460023ADF80630ADF8043010
:101C5C008DE103889BB223F4E14323F070039BB224
:101C6C0003802268B2F8503094F8281003EBC103BB
:101C7C00023302EB4303D3F80034C3F30903636468
:101C8C00E26B1344E36300212046FEF7BFFB94F89C
:101C9C002430002B00F06B81236C002B40F067810B
:101CAC0094F82430226843F08003A2F84C300023CF
:101CBC0084F824305BE1B0F8503094F8282203EB20
:101CCC00C203063300EB4303D3F80034C3F3090318
:101CDC00C4F84432B4F82C2204F22C4100F0A1FFD9
:101CEC002268138823F070031B051B0D13802046FC
:101CFC00FEF77AFB3BE1B4F82C22D4F83C1200F04E
:101D0C0090FFD4F84422D4F83C321344C4F83C324B
:101D1C006BE1C1F34F0311F0010F01D001339BB202
:101D2C009B029BB2C2F800347CE130F825309BB2A8
:101D3C00ADF80430BDF8043013F4004F35D1BDF8C4
:101D4C00043013F0800F00F01281226832F8253035
:101D5C009BB223F4E14323F070039BB222F82530AD
:101D6C0004EB451393F83230002B40F0B28020681E
:101D7C00B0F8503004EB451292F8282003EBC20364
:101D8C00023300EB4303D3F80034C3F30903AA1C5A
:101D9C0004EB42125360002B00F0C98004EB451198
:101DAC008A8DC96B00F0CBFDC1E030F8253023F0F3
:101DBC0070031B051B0D20F8253004EB451393F81D
:101DCC003232D3B92068B0F8503004EB451292F897
:101DDC00282203EBC203063300EB4303B3F8006481
:101DEC00C6F3090686B304EB45113346B1F82C2231
:101DFC00D1F83C1200F015FF26E0206804EB4513E7
:101E0C0093F8282230F8223013F4804F42D0B0F8E7
:101E1C00503003EBC203023300EB4303B3F800640E
:101E2C00C6F3090666BB226804EB451393F8281227
:101E3C0032F8213023F0F0031B051B0D43F4004353
:101E4C0043F0C00322F8213005F112035B01E118C5
:101E5C004A6832444A6004EB4511D1F83C223244C2
:101E6C00C1F83C22E3581BB1D1F838128E4228D26B
:101E7C0004EB451393F828122046FEF7BDFA5EE7F3
:101E8C0004EB45113346B1F82E22D1F83C1200F088
:101E9C00C8FEC8E7B0F8503003EBC203063300EBC2
:101EAC004303B3F80064C6F30906002EBBD004EB61
:101EBC0045113346B1F83022D1F83C1200F0B1FE96
:101ECC00B1E704EB451191F828122046FFF774FE98
:101EDC0035E7206804EB451393F8282030F82230BE
:101EEC0013F0400F00F0B480B0F8503003EBC20395
:101EFC00023300EB4303D3F80034C3F30903AA1CE9
:101F0C0004EB42125360002B40F09B80226804EBE0
:101F1C00451393F8281032F8213023F0F0031B05F9
:101F2C001B0D43F4404343F0800322F82130226818
:101F3C00B2F8503004EB451090F8281003EBC103B5
:101F4C00023302EB4303D3F80024C2F30902AB1CA7
:101F5C005B01E1184A60C16B0A44C263E358002B71
:101F6C0040F08F8090F828102046FEF74FFA20683A
:101F7C00B0F844309BB2ADF8063013F4004F00F0CB
:101F8C008880BDF8065015F00F057FF4CEAEBDF875
:101F9C00063013F0100F3FF45CAE03889BB2ADF823
:101FAC000430BDF8043013F4006F7FF484AEBDF838
:101FBC00043013F4004FDAD0038823F070031B05B0
:101FCC001B0D03802068B0F8503094F8282203EBE6
:101FDC00C203063300EB4303D3F80034C3F3090305
:101FEC00C4F84432002B7FF486AE00212046FEF765
:101FFC0003FA2368B3F85020063203EB4202D4F8FC
:10200C0038123E297FF685AEC1F34F1311F01F0F26
:10201C0001D1013B9BB26FEAC3636FEA53439BB29E
:10202C00C2F80034226813889BB223F4804323F057
:10203C00700383F4405343F4004343F08003138054
:10204C0095E704EB4511CA8DC96B00F078FC5DE790
:10205C00B0F8503003EBC203063300EB4303D3F864
:10206C000034C3F30903AA1C04EB42125360002B87
:10207C003FF44CAF04EB45110A8EC96B00F05FFCCA
:10208C0044E704EB451595F828102046FFF7BAFDF8
:10209C006DE7002002B070BD10B50446006800F07A
:1020AC0049FC10F4004F45D1206800F043FC10F4BB
:1020BC00806F43D1206800F03DFC10F4804F08D0B5
:1020CC002268B2F844309BB223F480439BB2A2F84E
:1020DC004430206800F02EFC10F4005F08D0226819
:1020EC00B2F844309BB223F400539BB2A2F84430B4
:1020FC00206800F01FFC10F4805F30D1206800F0E5
:10210C0019FC10F4006F49D1206800F013FC10F496
:10211C00007F64D1206800F00DFC10F4807F08D0A3
:10212C002268B2F844309BB223F480739BB2A2F8BD
:10213C00443010BD2046FFF783FDB5E72268B2F8A6
:10214C0044309BB223F480639BB2A2F84430204607
:10215C00FEF76BF900212046FFF7CAFCAAE72268BC
:10216C00B2F840309BB223F004039BB2A2F840308B
:10217C002268B2F840309BB223F008039BB2A2F85D
:10218C0040302046FEF774F92268B2F844309BB216
:10219C0023F480539BB2A2F84430AFE72268B2F824
:1021AC00403043F00803A2F840302268B2F84430C3
:1021BC009BB223F400639BB2A2F844302268B2F8BD
:1021CC00403043F00403A2F84030206800F0B2FB2A
:1021DC0010F4805F98D12046FEF73AF994E7226814
:1021EC00B2F844309BB223F400739BB2A2F8443093
:1021FC002046FEF714F98DE738B54AB2002A1BDBEE
:10220C004B0103F50A73034401249C7001F07F0514
:10221C001D70D20F5A7090F82824A24218D0044690
:10222C00012280F828241946006800F0F9FA4DB113
:10223C00002084F8280438BD01F07F035B012833AB
:10224C000344E1E704F22C41206800F076FBEFE751
:10225C000220F0E710B54AB2002A1ADB4B0103F555
:10226C000A73034400249C7001F07F011970D20F93
:10227C005A7090F82824012A11D00446012280F8C3
:10228C0028241946006800F002FB002084F828047A
:10229C0010BD01F07F035B0128330344E2E7022009
:1022AC00F6E711F0800F09D001F07F0149012831C8
:1022BC00014442B98A728B8000207047490101F5B4
:1022CC000A710144F5E701228A72CB801B0C0B8149
:1022DC00F2E784B001A880E80E00002004B070473B
:1022EC00B0F8403043F43F43A0F840300020704732
:1022FC00B0F8403023F474535B045B0CA0F840300E
:10230C00002070470020704784B038B505AC84E8D5
:10231C000E000123A0F840300024A0F84040A0F8A3
:10232C004440A0F85040FFF7DBFF2046BDE83840A2
:10233C0004B0704710B4CB78032B0FD8DFE803F050
:10234C00026D54600A7830F822309BB223F4EC43CF
:10235C0023F0700343F4007320F822300A7830F82D
:10236C00223023F0F0031B051B0D134343F40043F1
:10237C0043F0800320F822308B7A002B40F0AF80A2
:10238C004B78002B56D08A885208B0F850300C7815
:10239C0003EBC40300EB43035200C3F800240A7898
:1023AC0030F8223013F0400F0BD030F8223023F0ED
:1023BC00F0031B051B0D43F4004343F0C00320F84E
:1023CC0022300A7830F822309BB223F4E04323F019
:1023DC00400383F0200343F4004343F0800320F8D0
:1023EC002230002010BC70470A7830F822309BB2A3
:1023FC0023F4EC4323F070039BB220F82230ADE7BA
:10240C000A7830F822309BB223F4EC4323F07003AB
:10241C0043F4C06320F82230A0E70A7830F8223069
:10242C009BB223F4EC4323F0700343F4806320F855
:10243C00223093E78A885208B0F850300C7803EBBE
:10244C00C403043300EB43035200C3F80024B0F878
:10245C0050300A7803EBC203063300EB43030C69DC
:10246C003E2C30D9C4F34F1214F01F0F01D1013A96
:10247C0092B26FEAC2626FEA524292B2C3F800247F
:10248C000A7830F8223013F4804F0BD030F8223019
:10249C0023F0F0031B051B0D43F4404343F0800372
:1024AC0020F822300A7830F822309BB223F4804393
:1024BC0023F0700383F4405343F4004343F0800350
:1024CC0020F822308DE7C4F34F0214F0010F01D035
:1024DC00013292B2920292B2C3F80024D0E70A7889
:1024EC0030F8223023F4F8731B051B0D43F4014321
:1024FC0043F0800320F82230CA885208B0F85030DC
:10250C000C7803EBC40300EB43035200C3F8002424
:10251C000A895208B0F850300C7803EBC40304332A
:10252C0000EB43035200C3F800244B78002B4BD133
:10253C000A7830F8223013F4804F0BD030F8223068
:10254C0023F0F0031B051B0D43F4404343F08003C1
:10255C0020F822300A7830F8223013F0400F0BD0DC
:10256C0030F8223023F0F0031B051B0D43F400431D
:10257C0043F0C00320F822300A7830F8223023F0E0
:10258C00F0031B051B0D43F4004343F0C00320F87C
:10259C0022300A7830F822309BB223F4804323F0A7
:1025AC00700383F4405348F28004234320F8223014
:1025BC000A7830F822309BB223F4E04323F0400336
:1025CC00234320F822300CE70A7830F8223013F439
:1025DC00804F0BD030F8223023F0F0031B051B0D7D
:1025EC0043F4404343F0800320F822300A7830F85B
:1025FC00223013F0400F0BD030F8223023F0F003D0
:10260C001B051B0D43F4004343F0C00320F822309C
:10261C000A7830F8223023F0F0031B051B0D43F42D
:10262C00404343F0800320F822300B7830F823200D
:10263C0092B222F4E04222F0400248F2800422439B
:10264C0020F823200A7830F822309BB223F4804300
:10265C0023F07003234320F82230C2E68B7A002B40
:10266C0044D14B780BB30A7830F8223013F0400F7A
:10267C000BD030F8223023F0F0031B051B0D43F474
:10268C00004343F0C00320F822300A7830F822309F
:10269C009BB223F4E04323F0400343F4004343F0A4
:1026AC00800320F82230002070470A7830F822305E
:1026BC0013F4804F0BD030F8223023F0F0031B05BD
:1026CC001B0D43F4404343F0800320F822300A787A
:1026DC0030F822309BB223F4804323F0700343F490
:1026EC00004343F0800320F82230DCE710B44B7831
:1026FC00002B4BD10A7830F8223013F4804F0BD0DA
:10270C0030F8223023F0F0031B051B0D43F440433B
:10271C0043F0800320F822300A7830F8223013F08E
:10272C00400F0BD030F8223023F0F0031B051B0DAB
:10273C0043F4004343F0C00320F822300A7830F809
:10274C00223023F0F0031B051B0D43F4004343F030
:10275C00C00320F822300B7830F8232092B222F4F8
:10276C00804222F0700248F28004224320F8232099
:10277C000A7830F822309BB223F4E04323F0400374
:10278C00234320F82230002010BC70470A7830F820
:10279C00223013F4804F0BD030F8223023F0F003AA
:1027AC001B051B0D43F4404343F0800320F82230FB
:1027BC000A7830F8223013F0400F0BD030F822306A
:1027CC0023F0F0031B051B0D43F4004343F0C0033F
:1027DC0020F822300A7830F8223023F0F0031B0561
:1027EC001B0D43F4404343F0800320F822300B7858
:1027FC0030F8232092B222F4E04222F0400248F258
:10280C008004224320F823200A7830F822309BB22F
:10281C0023F4804323F07003234320F82230B2E7E3
:10282C000A7892B930F822309BB223F4804323F01B
:10283C00400383F4805383F0100343F4004343F0CC
:10284C00800320F82230002070474B787BB130F8A1
:10285C0022309BB223F4E04323F0400383F01003B7
:10286C0043F4004343F0800320F82230EBE730F8C8
:10287C0022309BB223F4804323F0700383F4805303
:10288C0043F4004343F0800320F82230DBE74B781D
:10289C001BB30A7830F8223013F0400F0BD030F80D
:1028AC00223023F0F0031B051B0D43F4004343F0CF
:1028BC00C00320F822300A7830F822309BB223F47F
:1028CC00E04323F0400383F0300343F4004343F030
:1028DC00800320F82230002070470A7830F822302C
:1028EC0013F4804F0BD030F8223023F0F0031B058B
:1028FC001B0D43F4404343F0800320F822300A7848
:10290C0030F822309BB223F4804323F0700383F41D
:10291C00405343F4004343F0800320F82230DAE7BD
:10292C0011B98023A0F84C3000207047002070476C
:10293C0000207047B0F84400704700207047013306
:10294C005B1000EB420202F5806263B110B40C78AC
:10295C00487844EA002422F8044B0231013B002B56
:10296C00F5D110BC70477047F8B58A694D78012DC8
:10297C0034D00B69934280F0EA80D21A8A618A7A49
:10298C00002A40F0F480B0F850200C7802EBC4021E
:10299C00063200EB42023E2B40F2DD80C3F34F14B3
:1029AC0013F01F0F01D1013CA4B26FEAC4646FEAAB
:1029BC005444A4B2C2F800440A7830F822309BB2D6
:1029CC0023F4804323F0700383F4405343F4004317
:1029DC0043F0800320F822300020F8BD0F699742A5
:1029EC0025D2D21B8A610E4604468B7A1BB30B7818
:1029FC0030F8232012F0400F69D0002D37D1B0F8F9
:102A0C00502002EBC303063300EB43033E2F22D9C5
:102A1C00C7F34F1217F01F0F01D1013A92B26FEAB0
:102A2C00C2626FEA524292B2C3F8002428E000233B
:102A3C008B611746D7E7BBB28A884969FFF77FFFDE
:102A4C00B4F85030327803EBC203023304EB430387
:102A5C00C3F800742AE0C7F34F0217F0010F01D03E
:102A6C00013292B2920292B2C3F8002408E0B0F89C
:102A7C00502002EBC303023300EB4303C3F8007492
:102A8C003289BBB271692046FFF759FF7378002B6E
:102A9C004DD1327834F8223023F0F0031B051B0D96
:102AAC0043F4004343F0C00324F82230327834F866
:102ABC0022309BB223F4E04323F0400383F0300335
:102ACC0043F4004343F0800324F8223084E71DBB19
:102ADC00B0F8502002EBC303023300EB43033E2F4C
:102AEC000ED9C7F34F1217F01F0F01D1013A92B252
:102AFC006FEAC2626FEA524292B2C3F8002414E049
:102B0C00C7F34F0217F0010F01D0013292B29202BB
:102B1C0092B2C3F8002408E0B0F8502002EBC303D3
:102B2C00023300EB4303C3F80074F288A9E7012BCE
:102B3C00BCD1327834F8223023F0F0031B051B0D86
:102B4C0043F4404343F0800324F82230AEE70023E3
:102B5C008B61134613E7C3F34F0413F0010F01D03D
:102B6C000134A4B2A402A4B2C2F8004424E7BDB953
:102B7C00B0F850200C7802EBC402023200EB420297
:102B8C003E2B28D9C3F34F1413F01F0F01D1013C76
:102B9C00A4B26FEAC4646FEA5444A4B2C2F800440D
:102BAC004A7882BBB0F850200C7802EBC402063293
:102BBC0000EB42023E2B1AD9C3F34F1413F01F0F34
:102BCC0001D1013CA4B26FEAC4646FEA5444A4B2CC
:102BDC00C2F80044F0E6C3F34F0413F0010F01D028
:102BEC000134A4B2A402A4B2C2F80044D8E7C3F3DF
:102BFC004F0413F0010F01D00134A4B2A402A4B20B
:102C0C00C2F80044D8E6012A7FF4D6AEB0F85020C2
:102C1C000C7802EBC402023200EB4202C2F8003420
:102C2C00CAE601335B1000EB420202F580622BB165
:102C3C0052F8040B21F8020B013BF8E77047000037
:102C4C0008B590B10346D0F8140210B10020C3F8B7
:102C5C00140209B1C3F81012012183F8FC111A7087
:102C6C001846FDF70BFC002008BD054800F06EFD72
:102C7C00044800F06BFD0A2000F080FD0220F3E711
:102C8C00B0470008B847000808B519B1C0F81412CD
:102C9C00002008BD054800F059FD054800F056FD20
:102CAC000A2000F06BFD0220F3E700BFB0470008DC
:102CBC00D047000808B5FDF723FC002008BD08B577
:102CCC00D0F8143233B11B68984708B9002008BDFE
:102CDC000220FCE70220FAE708B5D0F814325B6852
:102CEC009847002008BD38B5044600F50275284603
:102CFC0000F00EF90123C4F8F431B4F80E32C4F824
:102D0C00F83194F8081201F01F03012B0FD05AB2BE
:102D1C003AB1022B10D001F080012046FDF70BFCDC
:102D2C0003E02946204600F06CFA002038BD294605
:102D3C00204600F08AFAF8E72946204600F0A0FA6F
:102D4C00F3E710B5044629BB1346D0F8F421032A47
:102D5C0001D0002010BDD0F80C11D0F810219142F8
:102D6C000BD8D0F814321B691BB190F8FC21032A44
:102D7C000ED0204600F05FFBEBE7891AC0F80C116F
:102D8C008A4228BF0A4692B2194600F04CFBE0E793
:102D9C009847EEE70A46D0F814329B69002BD8D03E
:102DAC0090F8FC110329D4D111469847D1E710B5FE
:102DBC000446002947D11346D0F8F421022A05D045
:102DCC0094F80032012B3AD0002010BDC169026A80
:102DDC00914217D88169B1FBF2F302FB13132BB9A3
:102DEC008A4203D8D0F8F831994218D3D4F8143267
:102DFC00DB681BB194F8FC21032A1DD0204600F09F
:102E0C0025FBDDE78A1AC26192B2194600F0F4FA8A
:102E1C0000231A4619462046FDF7C0FBD0E70022D6
:102E2C00114600F0E9FA0021C4F8F8110B460A46E5
:102E3C002046FDF7B3FBC3E720469847DEE70023A7
:102E4C0084F80032C0E70A46D0F814325B69002BD4
:102E5C00BAD090F8FC110329B6D111469847B3E7C4
:102E6C0038B50446402300221146FDF751FB40259E
:102E7C00C4F810512B46002280212046FDF748FB58
:102E8C002562012384F8FC31D4F818322BB1D4F824
:102E9C0014325B68217920469847002038BD0174B4
:102EAC000020704790F8FC3180F8FD31042380F845
:102EBC00FC310020704790F8FD3180F8FC31002087
:102ECC00704708B590F8FC31032B01D0002008BDE9
:102EDC00D0F81432DB69002BF8D09847F6E70023C2
:102EEC0002781AB10133DBB20130F9E718467047AA
:102EFC004B88012B00D0704710B50446C0F8043243
:102F0C00D0F814329B689847204600F094FA10BD14
:102F1C000B7803704B7843708B78CA7803EB0223E1
:102F2C0043800B794A7903EB022383808B79CA792E
:102F3C0003EB0223C380704710B504468021FDF7D4
:102F4C00FAFA00212046FDF7F6FA10BD30B583B031
:102F5C0004460D464A88130A013B062B00F2818079
:102F6C00DFE803F00413277F7F637000D0F8103282
:102F7C001B680DF10601007C9847BDF8062012B1C4
:102F8C00EB88002B71D103B030BD037C43B9D0F872
:102F9C0014329B6A0DF10600984702234370ECE74C
:102FAC00D0F81432DB6A0DF1060098470223437007
:102FBC00E3E7D2B2052A34D8DFE802F0030B131B87
:102FCC00232BD0F810325B680DF10601007C98477A
:102FDC00D3E7D0F810329B680DF10601007C9847BE
:102FEC00CBE7D0F81032DB680DF10601007C984776
:102FFC00C3E7D0F810321B690DF10601007C98472D
:10300C00BBE7D0F810325B690DF10601007C9847E4
:10301C00B3E7D0F810329B690DF10601007C98479C
:10302C00ABE72946FFF788FFADE7037C33B9D0F84F
:10303C0014325B6B0DF1060098479EE72946FFF7AB
:10304C007BFFA0E7037C43B9D0F814321B6B0DF166
:10305C0006009847072343708FE72946FFF76CFF5C
:10306C0091E72946FFF768FF8DE79A4228BF1A4679
:10307C00ADF806200146204600F0B1F983E738B5DB
:10308C0004468B88E3B9CB88D3B98D7805F07F05DE
:10309C0090F8FC31032B0CD080F8FE512946FDF73B
:1030AC006DFA204600F0C7F935B1022384F8FC31E3
:1030BC0009E0FFF741FF06E0012384F8FC3102E050
:1030CC002046FFF739FF38BD38B504460D468978E0
:1030DC00254B1970012909D890F8FC31022B09D025
:1030EC00032B1CD02946FFF727FF02E02946FFF7E8
:1030FC0023FF38BD81B14160032380F8FC31FFF719
:10310C00DEFD022803D0204600F095F9F1E72946B0
:10311C002046FFF711FFECE700F08DF9E9E789B1E4
:10312C00436899421DD0D9B2FFF7D6FD0E4B1978E2
:10313C0061602046FFF7C3FD02280DD0204600F049
:10314C007AF9D6E7022380F8FC314160FFF7C4FD21
:10315C00204600F070F9CCE729462046FFF7ECFE3C
:10316C00C7E700F068F9C4E72004002008B5CB8855
:10317C00012B08D190F8FC31022B07D0032B0DD07A
:10318C00FFF7DAFE01E0FFF7D7FE08BD014600238A
:10319C0041F8083F012200F022F9F6E70122011D57
:1031AC0000F01DF9F1E708B590F8FC31023B012B5A
:1031BC000CD80123C360D0F804320BB10323C360D5
:1031CC00022200F10C0100F00AF908BDFFF7B4FE71
:1031DC00FBE710B5044690F8FC31023B012B0DD8EF
:1031EC004B88012B0CD10023C0F80432D0F81432D8
:1031FC009B689847204600F01EF901E0FFF79CFE03
:10320C0010BD08B54B78092B1CD8DFE803F0121859
:10321C001B151B09051B0F0CFFF798FE002008BDA2
:10322C00FFF72DFFFAE7FFF74FFFF7E7FFF79EFFDA
:10323C00F4E7FFF7B8FFF1E7FFF75AFEEEE7FFF709
:10324C00C8FFEBE7FFF778FEE8E738B504460D4614
:10325C0090F8FC31032B0FD10B79012B09D8D0F846
:10326C0014329B689847EB8843B9204600F0E3F88A
:10327C0004E0FFF761FE01E0FFF75EFE002038BDC1
:10328C0038B505460C468A880B7803F06003202B72
:10329C0013D0D1B26378012B30D058B2002851D062
:1032AC00032B0ED195F8FC31022B0CD0032B12D032
:1032BC0021462846FFF740FE03E0D0F814329B6805
:1032CC009847002038BD0029FBD08029F9D028462A
:1032DC00FDF731F9F5E7638813B909B1802909D1F4
:1032EC00D5F814329B68214628469847284600F0AA
:1032FC00A2F8E6E72846FDF71EF9F1E790F8FC3155
:10330C00022B05D0032B0AD02146FFF715FED8E778
:10331C000029D6D08029D4D0FDF70DF9D1E76388E8
:10332C00002BCED111F07F0F03D1284600F083F88B
:10333C00C7E7FDF708F9D5F814329B6821462846F3
:10334C009847F2E795F8FC31022B06D0032B0BD0F3
:10335C0021462846FFF7F0FDB3E711F07F0FB0D000
:10336C002846FDF7E8F8ACE712F0800F11D101F018
:10337C007F04103405EB041404342846FDF7EBF8F5
:10338C0070B10123236002222146284600F027F861
:10339C0097E701F07F04013405EB04140434ECE7E7
:1033AC0000232360EFE7C8B170B50D4616460446FE
:1033BC00FFF795FD0130400080B230802870032368
:1033CC006B700223217841B101345A1CD2B2E954FA
:1033DC000233DBB20021A954F4E770BD704710B57D
:1033EC0013460222C0F8F4218361C3610A4600210E
:1033FC00FDF7CCF8002010BD08B513460A46002195
:10340C00FDF7C4F8002008BD10B513460322C0F820
:10341C00F421C0F80831C0F80C310A460021FDF740
:10342C00BDF8002010BD08B513460A460021FDF773
:10343C00B5F8002008BD08B50423C0F8F43100230A
:10344C001A461946FDF7A2F8002008BD08B5052359
:10345C00C0F8F43100231A461946FDF79FF80020F6
:10346C0008BDD0F818321BB10020C3F81402704705
:10347C000220704710B5D0F81842D0F81C325BB15E
:10348C0094F80002FF2807D09B6894F8012221468B
:10349C009847FF2384F80032002010BD432303809B
:1034AC0000487047A4000020432303800048704765
:1034BC00E8000020432303800048704738010020B7
:1034CC000A230380004870472C01002038B50446BD
:1034DC00D0F81852FDF76AF8C5F80C02D4F8183277
:1034EC004BB1D4F81C32DB6805F50371D5F8040236
:1034FC009847002038BD0220FCE7000070B5054657
:10350C000C46D0F818620B7813F0600224D0202AF5
:10351C0025D1CA88CAB113F0800F0BD0D0F81C3259
:10352C009B68314660789847E28831462846FFF719
:10353C0056FF14E04B7886F80032CB8886F80132BF
:10354C00CA883146FFF760FF09E0D0F81C329B684F
:10355C0000224878984702E04B780A2B01D00020D3
:10356C0070BD01220149FFF73AFFF8E72104002062
:10357C0010B504468121FCF7D6FF01212046FCF74B
:10358C00D2FF82212046FCF7CEFFD4F8183253B17B
:10359C00D4F81C325B689847D4F81802FDF710F881
:1035AC000023C4F81832002010BD38B50446037C43
:1035BC007BBB4FF4007302228121FCF7A9FF4FF46F
:1035CC000073022201212046FCF7A2FF08230322EC
:1035DC0082212046FCF79CFF4FF40770FCF7ECFFB0
:1035EC000546C4F8180248B3D4F81C321B68984737
:1035FC000023C5F81432C5F81832237CABB94FF44C
:10360C000073D5F8042201212046FCF7C7FF0020E7
:10361C0038BD402302228121FCF77AFF402302228D
:10362C0001212046FCF774FFD0E74023D5F8042293
:10363C0001212046FCF7B2FF0020E9E70120E7E773
:10364C0019B1C0F81C120020704702207047D0F846
:10365C001832C3F80812C3F8102200207047D0F8B3
:10366C001832C3F8041200207047D0F8182292B117
:10367C0008B5037C43B94FF40073D2F8042201213E
:10368C00FCF78CFF002008BD4023D2F80422012156
:10369C00FCF784FFF6E7022070470000002103E0EE
:1036AC000B4B5B58435004310A480B4B42189A425F
:1036BC00F6D30A4A02E0002342F8043B084B9A4234
:1036CC00F9D3FDF7D3F800F015F8FDF713F87047B0
:1036DC008848000800000020E0010020E0010020E4
:1036EC00D4140020FEE70000014B1868704700BF9F
:1036FC007C01002070B500260C4D0D4C641BA410F1
:10370C00A64209D100F0CCFF00260A4D0A4C641BDE
:10371C00A410A64205D170BD55F8043B984701365C
:10372C00EEE755F8043B98470136F2E7804800086D
:10373C00804800088048000884480008034602447A
:10374C00934200D1704703F8011BF9E70FB40A4B01
:10375C0013B51C6824B1A36913B9204600F07AF89C
:10376C0005AB049AA1682046019300F095F902B0CC
:10377C00BDE8104004B070477C01002038B5084B00
:10378C0005461C6824B1A36913B9204600F062F801
:10379C00A26829462046BDE8384000F031BC00BF85
:1037AC007C010020002310B50446C0E9003383607F
:1037BC0081814366C281C0E90433836119460822C2
:1037CC005C30FFF7BBFF054B24626362044BA362C2
:1037DC00044BE362044B236310BD00BFBD400008E3
:1037EC00DF400008174100083B410008014900F088
:1037FC00AFB800BF1544000870B568254A1E554384
:10380C000E4605F1740100F0C5F8044640B10021E4
:10381C00C0E900160C30A06005F16802FFF78EFFBE
:10382C00204670BD014800F0B2B800BFCC14002097
:10383C00014800F0ADB800BFCC140020014800F0E6
:10384C00A6B800BFC7140020014800F0A1B800BF03
:10385C00C714002010B50446FFF7F0FFA3691BB195
:10386C00BDE81040FFF7F0BFC4E912332365134BDA
:10387C00134A1B68A262A34208BF0123204608BF5B
:10388C00A36100F01FF86060204600F01BF8A060F8
:10389C00204600F017F80022E06004216068FFF772
:1038AC0081FF01220921A068FFF77CFF022212216F
:1038BC00E068FFF777FF0123A361D1E7E847000831
:1038CC00F9370008F8B50746FFF7ACFF1E4B1E682A
:1038DC00B36913B93046FFF7BDFF4836D6E901345A
:1038EC00013B03D533680BB33668F7E7B4F90C50DA
:1038FC00D5B9164B04F15800E360656600F046F844
:10390C00FFF796FF2560C4E90155C4E90455A5618C
:10391C000822294604F15C00FFF710FFC4E90D559D
:10392C00C4E912552046F8BD6834D9E7042138465D
:10393C00FFF762FF044630600028D5D1FFF778FF0F
:10394C000C233B60EEE700BFE84700080100FFFFD7
:10395C002DE9F84380468946002600F1480414B945
:10396C003046BDE8F883D4E90175013F01D52468E0
:10397C00F5E7AB89012B07D9B5F90E30013303D02C
:10398C0029464046C84706436835EEE770477047FE
:10399C0070470000F8B5CD1C25F0030508350C2D3B
:1039AC0038BF0C25002D064601DBA94203D90C2398
:1039BC0033600020F8BD00F0E7FD21490A68144689
:1039CC009CB9204F3B6823B92146304600F060FB80
:1039DC0038602946304600F05BFB431C23D10C2396
:1039EC003046336000F0D6FDE3E723685B1B17D449
:1039FC000B2B03D923601C44256004E06368A242AE
:103A0C000CBF0B605360304600F0C4FD04F10B009A
:103A1C00231D20F00700C21ACCD01B1AA350C9E7F3
:103A2C0022466468CCE7C41C24F00304A042E3D013
:103A3C00211A304600F02CFB0130DDD1CFE700BF5E
:103A4C002404002028040020936810B4013B002BB0
:103A5C00936007DA9469A34201DB0A2902D110BCF6
:103A6C0000F06ABB1368581C10601970084610BC33
:103A7C007047F8B506460F461446D518AC4201D12E
:103A8C00002007E03A4614F8011B3046FFF7DCFF34
:103A9C00431CF3D1F8BD00002DE9F04F0D469DB04D
:103AAC0014461E46074618B183690BB9FFF7D2FEC0
:103ABC00854B9D421BD17D686B6ED90705D4AB89B4
:103ACC009A0502D4A86DFFF762FFAB891B0701D5DD
:103ADC002B69EBB92946384600F092FBC0B16B6EEE
:103AEC00D8070ED54FF0FF301DB0BDE8F08F774BE7
:103AFC009D4201D1BD68DFE7754B9D4208BFFD6853
:103B0C00DAE7AB899905EDD4A86DFFF741FFE9E73A
:103B1C000023099320238DF8293030234FF0010A1C
:103B2C00DFF8B0918DF82A30039623461E4613F821
:103B3C00012B0AB1252AF9D1B6EB040B0BD05B464D
:103B4C00224629463846FFF794FF013000F0A38047
:103B5C00099B5B4409933378002B00F09C80002375
:103B6C004FF0FF32CDE905230136049307938DF80E
:103B7C0053301A933446052214F8011B554800F0B3
:103B8C00F5FC049BC0B9DA0644BF20228DF8532003
:103B9C00180744BF2B228DF8532032782A2A13D0D1
:103BAC00344600200A26079A214611F8013B303B87
:103BBC00092B4BD970B914E0A0EB09000AFA00F0FC
:103BCC00184304902646D5E7039A111D12680391F9
:103BDC00002A01DB079204E0524243F002030792F1
:103BEC00049323782E2B0CD163782A2B33D1039B8F
:103BFC0002341A1D1B680392002BB8BF4FF0FF3321
:103C0C000593354E03222178304600F0AFFC38B1D5
:103C1C004023801B03FA00F0049B013403430493FC
:103C2C0014F8011B06222D488DF8281000F09EFC7C
:103C3C0000283FD02A4B13BB039B073323F0070309
:103C4C0008330393099B434409936EE706FB023246
:103C5C0001200C46A8E700230A26194601340593D7
:103C6C00204610F8012B303A092A03D9002BC8D072
:103C7C000591C6E706FB012101230446F0E703ABDF
:103C8C0000932A46174B04A93846AFF30080B0F1D5
:103C9C00FF3F8046D6D16B6ED90705D4AB899A0508
:103CAC0002D4A86DFFF774FEAB895B063FF51AAF23
:103CBC00099819E703AB00932A460A4B04A9384626
:103CCC0000F088F8E3E700BF0C4800082C48000817
:103CDC00EC4700084C4800085248000856480008B9
:103CEC00000000007F3A00082DE9F04791461F467E
:103CFC008A680B6906469342B8BF1346C9F8003070
:103D0C0091F843200C46DDF8208012B10133C9F83C
:103D1C0000302368990642BFD9F800300233C9F845
:103D2C000030256815F0060507D104F1190AE3687F
:103D3C00D9F800209B1AAB4229DC94F84330226856
:103D4C00003318BF012392062ED404F143023946E6
:103D5C003046C047013021D02368E56803F00603E4
:103D6C00042B18BF0025D9F800204FF0000908BF1C
:103D7C00AD1AA368226908BF25EAE5759342C4BF52
:103D8C009B1AED181A344D451AD1002008E0012376
:103D9C00524639463046C047013003D14FF0FF3010
:103DAC00BDE8F0870135C2E73020E11881F8430007
:103DBC005A1C94F845102244023382F84310C4E78D
:103DCC000123224639463046C0470130E6D009F17E
:103DDC000109D8E72DE9F04306460C4601F14300F2
:103DEC00097E85B06E29984617460C9B00F0BB8067
:103DFC0024D8632939D00AD8002900F0C480582966
:103E0C0000F0928004F1420584F8421035E06429F8
:103E1C0001D06929F6D125681A6815F0800F02F1D6
:103E2C0004012CD012681960002A03DA2D235242A7
:103E3C0084F84330DFF8C0C10A233FE0732900F057
:103E4C00A68008D86F2921D07029DBD1226842F0D6
:103E5C002002226003E0752918D07829D2D178226B
:103E6C00DFF898C184F8452062E01A6804F1420535
:103E7C00111D1960136884F84230012394E0126814
:103E8C0015F0400F196018BF12B2CDE7D4F800C07E
:103E9C001A681CF0800F02F104051D6001D0126835
:103EAC0003E01CF0400FFAD012886F290CBF0823D6
:103EBC000A23DFF844C1002184F843106568002D03
:103ECC00A8BF2168A560A4BF21F0040121600AB934
:103EDC00002D46D00546B2FBF3F103FB112E1CF866
:103EEC000EE0934205F801ED39D9082B0BD123686C
:103EFC00DA0708D5236962689A42DEBF302305F8D9
:103F0C00013C05F1FF35401B2061CDF800803B469C
:103F1C0003AA21463046FFF7E7FE013049D14FF0A6
:103F2C00FF3005B0BDE8F083DFF8CCC084F8451055
:103F3C001D68216855F8042B1D600D060BD5CD07A7
:103F4C0044BF41F0200121601AB9236823F02003FB
:103F5C0023601023AFE74B0648BF92B2EFE70A4647
:103F6C00B9E70546C1E71A68D4F800C0151D6169A8
:103F7C001CF0800F1D60136801D0196003E01CF069
:103F8C00400FFAD01980002305462361BDE71A685B
:103F9C00111D1960156800216268284600F0E6FAC8
:103FAC0008B1401B606063682361002384F84330D0
:103FBC00ABE723692A4639463046C0470130AED0BC
:103FCC0023689B0713D4E068039B9842B8BF18463C
:103FDC00A7E701234A4639463046C04701309ED0F8
:103FEC000135E368039A9B1AAB42F2DCEBE7002540
:103FFC0004F11909F5E700BF5D4800086E48000898
:10400C0070B50D461446064618B183690BB9FFF717
:10401C0021FC1C4B9C4224D17468636ED80705D4D8
:10402C00A389990502D4A06DFFF7B1FCA368013BED
:10403C00002BA36005DAA26993421CDBEBB20A2BBE
:10404C0019D023685A1C22601D70EDB2636EDA071A
:10405C0005D4A3899B0502D4A06DFFF799FC2846D3
:10406C0070BD094B9C4201D1B468D6E7074B9C420A
:10407C0008BFF468D1E729462246304600F05CF8C8
:10408C000546E3E70C4800082C480008EC470008FC
:10409C0038B50023054C054608462360FCF76EF83E
:1040AC00431C02D1236803B12B6038BDD01400200F
:1040BC0010B50C46B1F90E1000F0BEFA0028ABBFDB
:1040CC00636DA3891B1823F48053ACBF6365A38174
:1040DC0010BD2DE9F0411F468B890546DB050C46CA
:1040EC00164605D502230022B1F90E1000F0C8F9CE
:1040FC00A389324623F48053A381B4F90E103B46B6
:10410C002846BDE8F04100F069B810B50C46B1F98D
:10411C000E1000F0B5F9431CA38915BF606523F49C
:10412C00805343F48053A38118BFA38110BDB1F910
:10413C000E1000F0D3B80000F8B50E461446054634
:10414C0018B183690BB9FFF785FB214B9C422BD12E
:10415C006C68A369A360A3891A072FD523696BB375
:10416C0023692068F6B2C01A63693746834204DCBF
:10417C002146284600F048F930BBA3680130013BCA
:10418C00A36023685A1C22601E706369834204D0AA
:10419C00A389DB0706D50A2E04D12146284600F058
:1041AC0033F988B93846F8BD0A4B9C4201D1AC684A
:1041BC00CFE7094B9C4208BFEC68CAE7214628466A
:1041CC0000F01EF80028CBD04FF0FF37EAE700BF15
:1041DC000C4800082C480008EC47000838B5054688
:1041EC00084611460022054C22601A46FBF7B8FF20
:1041FC00431C02D1236803B12B6038BDD0140020BE
:10420C00324B70B51D6806460C4625B1AB6913B927
:10421C002846FFF71FFB2E4B9C420FD16C68B4F95C
:10422C000C309AB215072CD4D00611D40922326066
:10423C0043F04003A3814FF0FF303EE0254B9C42FE
:10424C0001D1AC68EBE7244B9C4208BFEC68E6E775
:10425C00510712D5616B41B104F14403994202D06C
:10426C00304600F09DF900236363A38923F02403F7
:10427C00A3810023636023692360A38943F00803AF
:10428C00A38123694BB9A38903F42073B3F5007F91
:10429C0003D02146304600F029F9A28912F001031F
:1042AC000CD00023A36063695B42A361236953B9FB
:1042BC00B4F90C3013F08000BAD170BD920758BF1E
:1042CC006369A360F2E70020F7E700BF7C010020E0
:1042DC000C4800082C480008EC47000838B50023AF
:1042EC00054C054608462360FBF766FF431C02D1CC
:1042FC00236803B12B6038BDD01400208A892DE9C6
:10430C00F041054610070C4658D44B68002B05DCD1
:10431C000B6C002B02DC0020BDE8F081E66A002E5D
:10432C00F9D0002312F480522F682B6032D0606DCC
:10433C00A3895A0705D56368C01A636B0BB1236C4C
:10434C00C01A00230246E66A216A2846B047431C7D
:10435C00A38906D129681D2949D82A4ACA40D607FB
:10436C0045D5002262602269D904226004D5421C22
:10437C0001D12B6803B96065616B2F600029CAD02D
:10438C0004F14403994202D0284600F009F90020B8
:10439C006063C1E7216A01232846B047411CC7D19D
:1043AC002B68002BC4D01D2B01D0162B01D12F60F4
:1043BC00B1E7A38943F04003A381ADE70F69002F58
:1043CC00A9D0930718BF00230E6808BF4B69A6EB52
:1043DC0007080F608B60B8F1000F9CDD43463A462E
:1043EC00216A2846A66AB047002806DCA38943F058
:1043FC004003A3814FF0FF308EE70744A8EB000881
:10440C00E9E700BF0100402038B50B6905460C46B2
:10441C0013B90025284638BD18B183690BB9FFF7CD
:10442C0019FA144B9C421BD16C68B4F90C30002B5C
:10443C00EFD0626ED00704D4990502D4A06DFFF7BB
:10444C00A6FA28462146FFF759FF636E0546DA07A0
:10445C00E0D4A3899B05DDD4A06DFFF799FAD9E7C9
:10446C00054B9C4201D1AC68DFE7044B9C4208BF72
:10447C00EC68DAE70C4800082C480008EC47000808
:10448C0038B50546084611460022054C22601A46EE
:10449C00FBF79CFE431C02D1236803B12B6038BD93
:1044AC00D014002070B50E46B1F90E1096B000294C
:1044BC0014461D4607DA00232B60B3891A0610D464
:1044CC004FF480630EE06A4600F0C8F80028F2DB77
:1044DC00019A02F47042A2F500535A425A412A60E2
:1044EC00EEE740230020236016B070BD8B8973B5B6
:1044FC009D0706460C4607D504F14703236023614C
:10450C000123636102B070BD01AB6A46FFF7CAFFBD
:10451C00009905463046FFF73DFA48B9B4F90C301E
:10452C009A05EFD423F0030343F00203A381E3E7DE
:10453C000D4BB362A389206043F08003A381009BE1
:10454C0020616361019B5BB1B4F90E10304600F041
:10455C0097F828B1A38923F0030343F00103A38147
:10456C00A3891D43A581CDE7F937000810B5C9B261
:10457C0002449042034601D1002303E01C78013031
:10458C008C42F6D1184610BD0148FFF700BA00BFA7
:10459C00C81400200148FFF7FBB900BFC814002065
:1045AC0038B50546002943D051F8043C0C1F002BAC
:1045BC00B8BFE418FFF7E8FF1E4A1368104633B97A
:1045CC00636014602846BDE83840FFF7E3BFA342A0
:1045DC000BD921686218934201BF1A685B685218A4
:1045EC00226063600460EDE713465A680AB1A24288
:1045FC00FAD919685818A0420BD1206801445818F0
:10460C0082421960DED110685268014419605A6008
:10461C00D8E702D90C232B60D4E7206821188A42F2
:10462C0001BF116852680918216062605C60C9E7BB
:10463C0038BD00BF2404002038B505460846114695
:10464C000022054C22601A46FBF77AFD431C02D16E
:10465C00236803B12B6038BDD014002038B500237B
:10466C00064C0546084611462360FBF7A8FD431C83
:10467C0002D1236803B12B6038BD00BFD0140020D9
:10468C0038B50023054C054608462360FBF79CFD16
:10469C00431C02D1236803B12B6038BDD014002019
:1046AC00F8B500BFF8BC08BC9E467047F8B500BF13
:0846BC00F8BC08BC9E467047E3
:1046C40002030405060708090A0B0C0D0E0F10104F
:1046D4000102000043444320436F6E666967000093
:1046E40043444320496E746572666163650000004B
:1046F40053544D6963726F656C656374726F6E6950
:104704006373000053544D333220566972747561DB
:104714006C20436F6D506F72740000000A0D2055B9
:10472400415254205072696E7466204578616D70F0
:104734006C653A207265746172676574207468658B
:104744002043206C696272617279207072696E74A0
:10475400662066756E6374696F6E20746F2074686A
:104764006520554152540A0D0000000077656C63C2
:104774006F6D6520746F207777772E776176657318
:10478400686572652E636F6D202121212025640ADE
:104794000D000000000000000000000001020304FE
:1047A4000607080900000000010203044552524FA5
:1047B400523A2000496E76616C69642044657669DA
:1047C40063652068616E646C65000000496E766103
:1047D4006C696420436C6173732068616E646C65FA
:1047E4000000000080010020000000000000000024
:1047F40000000000000000000000000000000000B5
:1048040000000000000000000000000000000000A4
:104814000000000000000000000000000000000094
:104824000000000000000000000000000000000084
:104834000000000000000000000000000000000074
:104844000000000000000000232D302B2000686CC5
:104854004C0065666745464700303132333435369F
:1048640037383941424344454600303132333435D8
:0C48740036373839616263646566000005
:0448800031010008FA
:044884000D0100081A
:10488800DD010008E9010008990200087502000826
:1048980061020008B5020008D902000812010002EE
:1048A8000202004083044057000201020301000095
:1048B800040309041A0300000000000000000000BF
:1048C80000000000000000000000000000000000E0
:1048D8007503000851030008550300085903000830
:1048E80000A24A040100000010000000B7350008CB
:1048F8007D350008093500080000000081340008F3
:104908006F340008D93400080000000000000000DF
:1049180000000000B5340008A9340008C1340008BC
:10492800CD34000809024300020100C03209040026
:104938000001020201000524001001052401000104
:10494800042402020524060001070582030800105A
:1049580009040100020A00000007050102400000E6
:10496800070581024000000009024300020100C05F
:1049780032090400000102020100052400100105AB
:10498800240100010424020205240600010705820F
:104998000308001009040100020A000000070501CD
:1049A8000200020007058102000200000A06000258
:1049B800000000400100000009074300020104C094
:1049C800320904000001020201000524001001055B
:1049D80024010001042402020524060001070582BF
:1049E800030800FF09040100020A0000000705018E
:1049F80002400000070581024000000080010020FD
:104A0800000000000C4800082C480008EC4700088B
:104A1800000000000000000000000000000000008E
:104A2800000000000000000000000000000000007E
:104A3800000000000000000000000000000000006E
:104A4800000000000000000000000000000000005E
:104A5800000000000000000000000000000000004E
:04000005080036A910
:00000001FF
